:020000007A2A5A
:08000800FF00030E8312031335
:10001000C0000A0EC100040EC2008A110A12C72ACB
:100020000330CF07CF0CCF0C7F30CF050000CF0BB4
:10003000162808000000000000000000000000007A
:100040000000D20B1A280800CE08031D282808003B
:10005000F930FF3E031D29280000CE0B2828080098
:10006000FA30CE002420FA30CE002420FA30CE0020
:100070002420FA30CE002420CD0B30280800DA01ED
:10008000DB01DC01DD0103305902031D4928E830A2
:100090005802031C5528D91B5528E830D8020330D4
:1000A000031C0430D902DA0A43285908803ADE00DA
:1000B00080305E02031D5E2864305802031C6728EE
:1000C0006430D802D908031CD903DB0A5528590823
:1000D000803ADE0080305E02031D70280A3058022C
:1000E000031C79280A30D802D908031CD903DC0A7A
:1000F00067285808DD00DA08031D88280B30DA006D
:10010000DB08031D88284603031D88280B30DB000D
:100110005A08BF005B08BE005C08BD005D08BC005B
:1001200008000130D000D101083051020318080046
:10013000831605118312051150084F050319A228D3
:100140008316051505308312D2001A208316051573
:1001500003108312D00DD10A94283C300505C33E0C
:1001600085000530CF00102083133C3084004D08FB
:1001700084070008CE00CD080319C2284D08023AB2
:10018000031DD4288313203084004E088407000800
:10019000860046084D060319D12848084D06031D60
:1001A000E12810308602E12883132C3084004E08A9
:1001B00084070008860046084D06031DE1288030AC
:1001C00086028313383084004D0884073C300505CF
:1001D000000785000530CF0010200800D801DB01A2
:1001E000DC015208D9005308DA00D51FFD28D817C2
:1001F000D409D509D40A0319D50A581A0F29541C51
:1002000007295908DB075A0803185A0FDC0703109F
:10021000D50CD40C0310D90DDA0DD80AFD28D81F3F
:100220000800DB09DC09DB0A0319DC0A0800831279
:100230000313CD014408CE004508CD040230C600AA
:10024000C80803196629CF01CE1BCF0ACF080319AE
:100250002E29CD09CE09CD0A0319CE0A0630D200C7
:10026000D3014D08D4004E08D500EE205B08D00025
:100270005C08D7004D08D6004E08D1004E0DD10CB9
:10028000D60C4E0DD10C560CD00757080318D10AC6
:10029000D1075008D8005108D9003F20CF080319D2
:1002A000080003305102031D5729E8305002031C97
:1002B0006329D11B63290130C6003D08BC003E08FC
:1002C000BD003F08BE000A30BF0008000130C60074
:1002D00004304D07CF004E08D1000318D10A510851
:1002E000D200510DD20CCF0C510DD20CCF0C510DB0
:1002F000D20CCF0C4D08CF074E08D000520803187F
:10030000D00AD0074030CF0701300318D00AD007F9
:10031000D301D01BD30AD30803199329CF09D009DD
:10032000CF0A0319D00A4F08D8005008D9003F203F
:10033000D308031908000A30BF0008008312031312
:100340004708043A0319C7014708CD00AD20C70A82
:1003500008004D08CF0091204E08CF0091200800E2
:1003600083120313CD01CE0108304E020318CB29AE
:1003700083160511831205118316051506308312A5
:10038000CF0010200310CD0C0519CD170630D20078
:100390001A20CE0AB4294D08CF000800FA3083167F
:1003A000031392008312C91212150800CC30831275
:1003B0000313CD004430CE00A9210800CC308312B5
:1003C0000313CD00BE30CE00A9219E21B0214F08DD
:1003D000C5009E21B0214F08C4009E2117210800AE
:1003E00083160313051507308312D2001A2005194E
:1003F000CB01CE2108008316031305158312CD010E
:10040000051183160511CE210800831603138E15DE
:10041000C330831285000C30831685008601FF30BF
:1004200083128600831681018117073083129F0093
:10043000831681140114831281010B118B16900114
:100440009016101583160C1483120C1008309200AD
:10045000FA30831692008C1483128C100130CD0078
:1004600030208B170B171014080005224908003C98
:100470000318362AC91E542A9E21CC0A4C08023A77
:10048000031D442AF021532A4C08033A031D532A22
:100490001211CC01C91D4F2AD621C911532A491E58
:1004A000532ADE214912C912491D672A8519632A78
:1004B000C3080319632AC8080319602AC801622AFD
:1004C0000530C8001721C3018519C30A4911C91C89
:1004D0006B2A9E21C910C91D722ACC08031D722ADD
:1004E000CC0AFB21491E362ACC08031D362ACC0A29
:1004F000FB21362A013083120313C3001130A00000
:10050000D730A1003230A2009230A300D430A40032
:100510009830A5001830A600D330A7001030A800EE
:100520009030A900FE30AA00FF30AB008830AC004C
:10053000BE30AD00C430AE009430AF00B230B00079
:100540009130B1008130B200BC30B3008030B400D3
:100550009030B500F730B600FF30B700C230B800B9
:10056000C130B9004330BA008330BB00BC01BD01CB
:10057000BE01BF010230C600C7010530C800C90175
:100580007130CA00CB01CC018A110A12352A0B1D29
:10059000CD2A83120313C9140B11831203130C1CED
:1005A000DE2A49154A08723A0319C91575304A02FC
:1005B000031CDC2ACA014916CA0A0C108C1CE22A48
:1005C000C9168C10420E8400410E8A00400E830032
:0605D000FF0E7F0E090082
:02400E00183F59
:00000001FF
